:030000000209E40E
:0C09E400787FE4F6D8FD75817002000EEB
:100891000000000000000000000000000000000057
:1008A1000000000000000000000000000000000047
:0808B1005566778899AABBCCBB
:03000B00020639B1
:10063900C0E0C0D0300223152AE52A7028752A03A4
:10064900D52709852426C202D2008019E524C313BF
:10065900F52430B010432480800B20B008D20275F5
:100669002A04752709152BE52B7027752B033003F1
:1006790021E529700AC2B18528257529098013E564
:1006890025C313F525D52908D2B1C203D2018002A9
:0706990092B1D0D0D0E03295
:0E09D600C203C202D201C200E4F52BF52A22B0
:10095A007FFF12096C12096CAF2112096C7FFF121A
:02096A00096C16
:0A096C003001FDC2018F28D20322E2
:100869007F0A7E001208807F01120A317E007F0A0A
:070879001208807F0A7E00D7
:10088000D3EF9400EE94004007EF1F70F31E80F04A
:010890002245
:090A2800BF0103D2B322C2B322C4
:090A3100BF0103D2B222C2B222BD
:05000300D2B3C2CC22C3
:03000800D2CC2235
:10091E001200087F01120A28120A3112087CE4FF25
:0E092E00120A287F0AFE120880E4FF020A3136
:10093C00120008E4FF120A280F120A317F0AFE1275
:0E094C0008807F01120A287F0A7E00020880C0
:090A140030B3047F018002E4FF0D
:010A1D0022B6
:10076200120008AD07E4FCE4FF120A317F0AFE1210
:100772000880ED20E704E4FF80027F01120A2812BC
:100782000869ED25E0FD0CBC08DDE4FF120A31FE2C
:100792001208771200031208707D01E4FBFA120AB4
:1007A20014EF7003FD800E12087C0BBB00010ABA25
:0C07B20002ECBB58E9E4FF120A31AF056D
:0107BE002218
:0207BF00AD0784
:1007C100E4FC120003FBEC25E0FCE4FF120A317F9C
:1007D1000AFE120879120869120A14EF600543042F
:1007E1000180035304FE0BBB08DCE4FF120A317FD6
:1007F1000AFE120880AF05120A2812087C120008AE
:0A080100120870E4FF120A31AF0480
:01080B0022CA
:100559007FF47E011208BF7B007A0079307565123D
:020569007F0110
:08056B008F618B628A638964D1
:1005730075660AE566601012091EAF61120762EF25
:100583006005D566EED322E4F566E56514FFE566FE
:10059300C39F5019E4FF1207BFAB62AA63A9648526
:1005A3006682758300EF1203CD056680DD7F01123D
:1005B30007BFAB62AA63A964856682758300EF12E5
:0605C30003CD12093CC348
:0105C900220F
:0606A0008B628A6389648D
:1006A60075660AA907E566D39400402112091EAFB4
:1006B600011207628F67E5676013AF01120762EFE9
:1006C600600B1566E566C3940A40DAD322E4F56644
:1006D600E566C39565501FAB62AA63A96485668209
:1006E6007583001203A0FF1207628F67E567600239
:0D06F600D322056680DA12087512093CC394
:0107030022D3
:0608B900D2CC7F017E009D
:1008BF00D3EF9400EE940040147D2C7C06ED1D7058
:0D08CF00011C144C70F7EF1F70E61E80E353
:0108DC0022F9
:0909F00074322559F8E6F55AFFAE
:0209F900DFFE1F
:0109FB0022D9
:10080C00753084E4F531F53275330E755E0EFB7A76
:10081C00007930756504FF1206A0E433F55F7B00A8
:10082C007A007930E55E2402F5657F0112056BE4F0
:03083C0033F55F32
:01083F002296
:1005CA00E4F522F523FF74302FF8E62523F523E41A
:1005DA003522F5220FBF0CEEAE22AF237C007D0739
:1005EA001203EF8E228F236323FF6322FFE522FF8C
:1005FA00131313541FFEEFC43354E04E752E00F547
:10060A002F752F00F52E752200E52F4223E52E4285
:10061A0022AF23EF1313543FFEEFC4333354C04EBB
:0E062A00752300752E00F52F4223E52E422287
:01063800229F
:070401007F2C7E011208BFF1
:1004080012080C1209677F02120964E4F55C743261
:10041800255CF8E6F55DFF1209F9E58A5407FF74D3
:1004280030255CF8A6077430255CF8E6FF12096CE5
:10043800055CE55CC3940C40D585335DAF5D12095E
:10044800F9E58A5407F53C85375DAF5D1209F9E592
:100458008A5407F53D7F0DE4F55C74302FF8E6FE0D
:1004680074342FF8A6061F055CE55CB40EEC7530F5
:10047800A5E4F531F532753312FB7A0079307565EC
:1004880012FF1206A0E433FE701D1209677F0312E3
:100498000964F55C7430255CF8E6FF12096C055CAC
:1004A800E55CC3941040ED120559E433701D120940
:1004B800677F04120964F55C7430255CF8E6FF1266
:0B04C800096C055CE55CC3941040ED7E
:0104D3002206
:0604D4008B088A09890A69
:1004DA00780B7C007D007BFF7A0879917E007F1083
:1004EA0012037A750B83E4F50CF50D751B0C750E6A
:1004FA000CAF0B12096CAF0C12096CAF0D12096C20
:10050A00AF0E12096CFB7A00790B756504FF1206AF
:10051A00A0E43360037F01227B007A00790BE51B9C
:10052A002402F5657F0112056BE4337009E50BB40B
:10053A009004E50C60037F0122AF1B7E00A80AAC81
:0E054A0009AD087B007A00790D12037A7F005C
:010558002280
:080704008B448A4589468D47AC
:10070C0078487C007D007BFF7A0879A17E007F1001
:10071C0012037A754870E4F549F54A85474BFB7A24
:10072C00007948E5472404F565E4FF1206A0E4339C
:10073C0060037F01227B007A0079487565027F0196
:10074C0012056BE4337009E548B49004E549600385
:05075C007F01227F0077
:010761002275
:1008DD0078687C007D007BFF7A0879B17E007F0807
:1008ED0012037A7B007A0079687D081207048F70F5
:0108FD0022D8
:10000E00E4F5B2F5B1F5C9F5CA7589F0758E80754E
:10001E008A30758CFFC28DD28CD2A9D2B9D2AF12D2
:10002E0009D6D2CDE4F52130CDFDC2CC1208BB7F6E
:10003E00AA12096C1208BB7F0112096C7E0012080D
:10004E00BF1208B9C2CC1208B97F2C7E011208BFAC
:10005E001204011204011204011204017F2C7E010C
:10006E001208BF12080CE4F5591209F0E58A54077C
:10007E00FF74302559F8A6070559E559C3940C406D
:10008E00E8055BE55BD394644003E4F55BE55B2038
:10009E00E0031205CA7F0BE4F55974302FF8E6FE23
:1000AE0074342FF8A6061F0559E559B40CEC7530BB
:1000BE00A5E4F531F532753312853740E522F53773
:1000CE00853B4185233B7B007A007930756512E4D0
:1000DE00FF1206A0E433F558120559E433F55875AE
:1000EE002C0085372DE52D752D00F52CE53B252DA6
:1000FE00F52DE4352CF52C85403785413BE4F5593B
:10010E0074342559F8E6FF74302559F8A6070559B9
:10011E00E559B40CEB1205CAE4F521E52D65237003
:10012E0004E52C65226003752101120408120401F6
:10013E001204011204017F2C7E011208BF12095A0B
:10014E0012080CE4F5591209F074302559F8A68AF4
:10015E000559E559C3940C40EDE52170031205CA0B
:10016E0085333CE522F53385373D852337E4F53E6F
:10017E00F55974302559F8E6FBAD597FCA1209922C
:10018E000559E559C3940F40E9E4FB7D0E7FCA1271
:10019E0009927FF47E011208BF1209677F061209C9
:1001AE0064E4F559AD597FCA12084074302559F8E8
:1001BE00A60774302559F8E6FF12096C0559E55962
:1001CE00C3940E40DF752C0085332DE52D752D0063
:1001DE00F52CE537252DF52DE4352CF52C853C3306
:1001EE00853D37E55B20E0031205CAAF2D12096C81
:1001FE00E52CFF120964AF2312096CE522FF1209E8
:10020E006CE52D65237004E52C65226003752101D4
:10021E0012095AE521703F85313F853540853C41B5
:10022E00853242853643853D4485303C853931855E
:10023E003435853B32853836853A3D854130853FAC
:10024E003985403485423B85433885443AF53EE551
:10025E002CF533852D371209677F07120964E4F5F3
:10026E005974302559F8E6FBAD597FCA12099274BC
:10027E00302559F8E6FF12096C0559E559C3940F5C
:10028E0040DF7FC87E001208BF7B017D0E7FCA1241
:0C029E0009927FC87E001208BF020035E4
:0C09FC00EF4E6007EF1F70F81E80F52220
:050A0800120A0DD2B23C
:070A0D007F147E000209FCCA
:050A3A00D2B3D2B2228C
:0F09C700D2B3D2B2120A0DC2B3120A0DC2B222BB
:0A0A1E00C2B3120A08D2B3020A0D97
:080976001209C7AF041209AE1B
:10097E00D2B3120A08A2B39205120A0DC2B2120A1B
:03098E000DA205B2
:010991002243
:0209AE00AD0793
:1009B000E4FBED3392B3120A08C2B2120A0DED2520
:0609C000E0FD0BBB08EC9A
:0109C600220E
:1008FE00E4FCD2B2120A0DED25E0FD120A0D30B362
:0F090E0003430501C2B2120A0D0CBC08E5AF0588
:01091D0022B7
:10099200AC07AA03A905120976AF011209AE120922
:0C09A2007EAF021209AE12097E020A1E8E
:04084000AC07AA0552
:10084400120976AF021209AE12097E1209C7EC042E
:10085400FF1209AE12097E1208FEAD0712097E12BC
:040864000A1EAF05B4
:01086800226D
:1002AA00E709F608DFFA8046E709F208DFFA803E36
:1002BA0088828C83E709F0A3DFFA8032E309F60823
:1002CA00DFFA8078E309F208DFFA807088828C838B
:1002DA00E309F0A3DFFA806489828A83E0A3F6083F
:1002EA00DFFA805889828A83E0A3F208DFFA804C19
:1002FA0080D280FA80C680D4806980F280338010F0
:10030A0080A680EA809A80A880DA80E280CA803358
:10031A0089828A83ECFAE493A3C8C582C8CCC583D0
:10032A00CCF0A3C8C582C8CCC583CCDFE9DEE780A0
:10033A000D89828A83E493A3F608DFF9ECFAA9F01F
:10034A00EDFB2289828A83ECFAE0A3C8C582C8CC75
:10035A00C583CCF0A3C8C582C8CCC583CCDFEADE8E
:10036A00E880DB89828A83E493A3F208DFF980CCF0
:10037A0088F0EF60010E4E60C388F0ED2402B404E9
:10038A000050B9F582EB2402B4040050AF23234590
:06039A0082239002FA73B9
:1003A000BB010CE58229F582E5833AF583E0225012
:1003B00006E92582F8E622BBFE06E92582F8E2225C
:0D03C000E58229F582E5833AF583E4932276
:1003CD00F8BB010DE58229F582E5833AF583E8F066
:1003DD00225006E92582C8F622BBFE05E92582C812
:0203ED00F222FA
:1003EF00EF8DF0A4A8F0CF8CF0A428CE8DF0A42E22
:0203FF00FE22DC
:00000001FF
