:100F78000000000000000000000000000000000069
:100F88000000000000000000000000000000000059
:080F98005566778899AABBCCCD
:03000B00020D20C3
:100D2000C0E0C0D0300223152AE52A7028752A03B6
:100D3000D52709852426C202D2008019E524C313D1
:100D4000F52430B010432480800B20B008D2027507
:100D50002A04752709152BE52B7027752B03300303
:100D600021E529700AC2B18528257529098013E576
:100D700025C313F525D52908D2B1C203D2018002BB
:070D800092B1D0D0D0E032A7
:0E10B300C203C202D201C200E4F52BF52A22CC
:0810920012109A7FFF12109A60
:0A109A003001FDC2018F28D20322AD
:100F50007F057E00120F677F0112110E7E007F0554
:070F6000120F677F057E0000
:100F6700D3EF9400EE94004007EF1F70F31E80F05C
:010F77002257
:09110500BF0103D2B322C2B322E0
:09110E00BF0103D2B222C2B222D9
:05111700D2B3C2CC229E
:03112100D2CC220B
:101005001211217F0112110512110E120F63E4FF57
:0E1015001211057F05FE120F67E4FF02110E97
:10102300121121E4FF1211050F12110E7F05FE129A
:0E1033000F677F011211057F057E00020F6717
:0910F10030B3047F018002E4FF2A
:0110FA0022D3
:100E4900121121AD07E4FCE4FF12110E7F05FE1219
:100E59000F67ED20E704E4FF80027F0112110512FC
:100E69000F50ED25E0FD0CBC08DDE4FF12110EFE6C
:100E7900120F5E121117120F577D01E4FBFA1210BF
:100E8900F1EF7003FD800E120F630BBB00010ABA6C
:0C0E990002ECBB58E9E4FF12110EAF059B
:010EA500222A
:020EA600AD0796
:100EA800E4FC121117FBEC25E0FCE4FF12110E7FA5
:100EB80005FE120F60120F501210F1EF6005430487
:100EC8000180035304FE0BBB08DCE4FF12110E7F04
:100ED80005FE120F67AF05121105120F63121121DB
:0A0EE800120F57E4FF12110EAF04C1
:010EF20022DD
:100C40007FF47E01120FA67B007A00793075631263
:020C50007F0122
:080C52008F5F8B608A618962EB
:100C5A0075640AE5646010121005AF5F120E49EF61
:100C6A006005D564EED322E4F564E56314FFE56418
:100C7A00C39F5019E4FF120EA6AB60AA61A9628550
:100C8A006482758300EF120ABB056480DD7F01125E
:100C9A000EA6AB60AA61A962856482758300EF1211
:060CAA000ABB121023C377
:010CB0002221
:060D87008B608A618962A5
:100D8D0075640AA907E564D394004021121005AFDC
:100D9D0001120E498F65E5656013AF01120E49EF23
:100DAD00600B1564E564C3940A40DAD322E4F5645C
:100DBD00E564C39563501FAB60AA61A96285648227
:100DCD00758300120A8EFF120E498F65E56560026C
:0D0DDD00D322056480DA120F5C121023C3CC
:010DEA0022E6
:060FA000D2CC7F017E00AF
:100FA600D3EF9400EE940040147D2C7C06ED1D706A
:0D0FB600011C144C70F7EF1F70E61E80E365
:010FC300220B
:0910C10074322559F8E6F55AFFD6
:0210CA00DFFE47
:0110CC002201
:100EF300753084E4F531F53275330E755C0EFB7A8B
:100F0300007930756304FF120D87E433F55D7B00D0
:100F13007A007930E55C2402F5637F01120C52E418
:030F230033F55D46
:010F260022A8
:100CB100E4F522F523FF74302FF8E62523F523E42C
:100CC1003522F5220FBF0CEEAE22AF237C007D074B
:100CD100120ADD8E228F236323FF6322FFE522FFA9
:100CE100131313541FFEEFC43354E04E752E00F559
:100CF1002F752F00F52E752200E52F4223E52E4298
:100D010022AF23EF1313543FFEEFC4333354C04ECD
:0E0D1100752300752E00F52F4223E52E422299
:010D1F0022B1
:100AEF00120EF31210957F02121092E4F51C74325D
:100AFF00251CF8E6F51DFF1210CAE58A5407FF748E
:100B0F0030251CF8A6077430251CF8E6FF12109A42
:100B1F00051CE51CC3940C40D585331DAF1D121069
:100B2F00CAE58A5407F53C85371DAF1D1210CAE57B
:100B3F008A5407F53D7F0DE4F51C74302FF8E6FE5F
:100B4F0074342FF8A6061F051CE51CB40EEC753087
:100B5F00A5E4F531F532753312FB7A007930756300
:100B6F0012FF120D87E433FE701D1210957F0312D2
:100B7F001092F51C7430251CF8E6FF12109A051C14
:100B8F00E51CC3941040ED120C40E433701D12109D
:100B9F00957F04121092F51C7430251CF8E6FF1295
:0B0BAF00109A051CE51CC3941040EDDB
:010BBA002218
:060BBB008B088A09890A7B
:100BC100780B7C007D007BFF7A0F79787E007F10A7
:100BD100120A68750B83E4F50CF50D751B0C750E87
:100BE1000CAF0B12109AAF0C12109AAF0D12109A93
:100BF100AF0E12109AFB7A00790B756304FF120D88
:100C010087E43360037F01227B007A00790BE51BC7
:100C11002402F5637F01120C52E4337009E50BB431
:100C21009004E50C60037F0122AF1B7E00A80AAC93
:0E0C310009AD087B007A00790D120A687F0079
:010C3F002292
:080DEB008B448A4589468D47BF
:100DF30078487C007D007BFF7A0F79887E007F1026
:100E0300120A68754870E4F549F54A85474BFB7A41
:100E1300007948E5472404F563E4FF120D87E433C2
:100E230060037F01227B007A0079487563027F01AA
:100E3300120C52E4337009E548B49004E5496003A9
:050E43007F01227F0089
:010E48002287
:100FC40078667C007D007BFF7A0F79987E007F082D
:100FD400120A687B007A0079667D08120DEB8F6E29
:010FE40022EA
:100800007589F0758E80758A30758CFFC28DD28C9B
:10081000D2A9D2B9D2AF1210B3D2CDE4F52120CDF6
:10082000FDC2CC120FA27FAA12109A120FA27F0152
:1008300012109A7E00120FA6120FA0C2CC120FA0A7
:100840007F2C7E01120FA6120EF3E558B401028030
:10085000FEE4F5591210C1E58A5407FF743025599A
:10086000F8A6070559E559C3940C40E8055BE55B1C
:10087000D394644003E4F55BE55B20E003120CB124
:100880007F0BE4F55974302FF8E6FE74342FF8A688
:10089000061F0559E559B40CEC7530A5E4F531F5A2
:1008A00032753312853740E522F537853B41852384
:1008B0003B7B007A007930756312E4FF120D87E408
:1008C00033F558B4010280FE120C40E433F558B4FD
:1008D000010280FE752C0085372DE52D752D00F564
:1008E0002CE53B252DF52DE4352CF52C8540378561
:1008F000413BE4F55974342559F8E6FF7430255925
:10090000F8A6070559E559B40CEB120CB1AF2D123E
:10091000109AE52CFF121092AF2312109AE522FFD5
:1009200012109AE4F521E52D65237004E52C65226B
:100930006003752101121095AF2112109A120EF367
:10094000E558B4010280FEE4F5591210C174302557
:1009500059F8A68A0559E559C3940C40ED120CB11B
:1009600085333CE522F53385373D852337E4F5595A
:1009700074302559F8E6FBAD597FCA12105D055950
:10098000E559C3940E40E97FF47E01120FA67FC89B
:080990007E00120FA602081EF2
:0C10CD00EF4E6007EF1F70F81E80F52248
:0510D9001210DED2B28E
:0710DE007F0A7E000210CD25
:05111C00D2B3D2B222A3
:0F10A400D2B3D2B21210DEC2B31210DEC2B22229
:0A10FB00C2B31210D9D2B30210DE06
:081041001210A4AF0412107993
:10104900D2B31210D9A2B392051210DEC2B2121095
:03105900DEA2050F
:01105C002271
:02107900AD07C1
:10107B00E4FBED3392B31210D9C2B21210DEED25A0
:06108B00E0FD0BBB08ECC8
:01109100223C
:100FE500E4FCD2B21210DEED25E0FD1210DE30B3C6
:0F0FF50003430501C2B21210DE0CBC08E5AF05C4
:0110040022C9
:10105D00AC07AA03A905121041AF011210791210A5
:0C106D0049AF021210791210490210FB6A
:040F2700AC07AA0564
:100F2B00121041AF021210791210491210A4EC04E6
:100F3B00FF121079121049120FE5AD07121049126A
:040F4B0010FBAF05E3
:010F4F00227F
:030000000210E506
:0C10E500787FE4F6D8FD75816E020800EB
:10099800E709F608DFFA8046E709F208DFFA803E41
:1009A80088828C83E709F0A3DFFA8032E309F6082E
:1009B800DFFA8078E309F208DFFA807088828C8396
:1009C800E309F0A3DFFA806489828A83E0A3F6084A
:1009D800DFFA805889828A83E0A3F208DFFA804C24
:1009E80080D280FA80C680D4806980F280338010FB
:1009F80080A680EA809A80A880DA80E280CA803364
:100A080089828A83ECFAE493A3C8C582C8CCC583DB
:100A1800CCF0A3C8C582C8CCC583CCDFE9DEE780AB
:100A28000D89828A83E493A3F608DFF9ECFAA9F02A
:100A3800EDFB2289828A83ECFAE0A3C8C582C8CC80
:100A4800C583CCF0A3C8C582C8CCC583CCDFEADE99
:100A5800E880DB89828A83E493A3F208DFF980CCFB
:100A680088F0EF60010E4E60C388F0ED2402B404F4
:100A78000050B9F582EB2402B4040050AF2323459B
:060A880082239009E873CF
:100A8E00BB010CE58229F582E5833AF583E022501D
:100A9E0006E92582F8E622BBFE06E92582F8E22267
:0D0AAE00E58229F582E5833AF583E4932281
:100ABB00F8BB010DE58229F582E5833AF583E8F071
:100ACB00225006E92582C8F622BBFE05E92582C81D
:020ADB00F22205
:100ADD00EF8DF0A4A8F0CF8CF0A428CE8DF0A42E2D
:020AED00FE22E7
:00000001FF
