:100F8A000000000000000000000000000000000057
:100F9A000000000000000000000000000000000047
:080FAA005566778899AABBCCBB
:03000B00020D32B1
:100D3200C0E0C0D0300223152AE52A7028752A03A4
:100D4200D52709852426C202D2008019E524C313BF
:100D5200F52430B010432480800B20B008D20275F5
:100D62002A04752709152BE52B7027752B033003F1
:100D720021E529700AC2B18528257529098013E564
:100D820025C313F525D52908D2B1C203D2018002A9
:070D920092B1D0D0D0E03295
:0E10C500C203C202D201C200E4F52BF52A22BA
:0810A4001210AC7FFF1210AC2A
:0A10AC003001FDC2018F28D203229B
:100F62007F057E00120F797F011211207E007F051E
:070F7200120F797F057E00DC
:100F7900D3EF9400EE94004007EF1F70F31E80F04A
:010F89002245
:09111700BF0103D2B322C2B322CE
:09112000BF0103D2B222C2B222C7
:05112900D2B3C2CC228C
:03113300D2CC22F9
:101017001211337F01121117121120120F75E4FFFD
:0E1027001211177F05FE120F79E4FF0211204F
:10103500121133E4FF1211170F1211207F05FE1252
:0E1045000F797F011211177F057E00020F79CF
:0911030030B3047F018002E4FF17
:01110C0022C0
:100E5B00121133AD07E4FCE4FF1211207F05FE12E3
:100E6B000F79ED20E704E4FF80027F0112111712C6
:100E7B000F62ED25E0FD0CBC08DDE4FF121120FE36
:100E8B00120F70121129120F697D01E4FBFA121176
:100E9B0003EF7003FD800E120F750BBB00010ABA36
:0C0EAB0002ECBB58E9E4FF121120AF0577
:010EB7002218
:020EB800AD0784
:100EBA00E4FC121129FBEC25E0FCE4FF1211207F6F
:100ECA0005FE120F72120F62121103EF600543043E
:100EDA000180035304FE0BBB08DCE4FF1211207FE0
:100EEA0005FE120F79AF05121117120F7512113381
:0A0EFA00120F69E4FF121120AF048B
:010F040022CA
:100C52007FF47E01120FB87B007A0079307563123F
:020C62007F0110
:080C64008F5F8B608A618962D9
:100C6C0075640AE5646010121017AF5F120E5BEF2B
:100C7C006005D564EED322E4F564E56314FFE56406
:100C8C00C39F5019E4FF120EB8AB60AA61A962852C
:100C9C006482758300EF120ACD056480DD7F01123A
:100CAC000EB8AB60AA61A962856482758300EF12ED
:060CBC000ACD121035C341
:010CC200220F
:060D99008B608A61896293
:100D9F0075640AA907E564D394004021121017AFB8
:100DAF0001120E5B8F65E5656013AF01120E5BEFED
:100DBF00600B1564E564C3940A40DAD322E4F5644A
:100DCF00E564C39563501FAB60AA61A96285648215
:100DDF00758300120AA0FF120E5B8F65E565600236
:0D0DEF00D322056480DA120F6E121035C396
:010DFC0022D4
:060FB200D2CC7F017E009D
:100FB800D3EF9400EE940040147D2C7C06ED1D7058
:0D0FC800011C144C70F7EF1F70E61E80E353
:010FD50022F9
:0910D30074322559F8E6F55AFFC4
:0210DC00DFFE35
:0110DE0022EF
:100F0500753084E4F531F53275330E755C0EFB7A78
:100F1500007930756304FF120D99E433F55D7B00AC
:100F25007A007930E55C2402F5637F01120C64E4F4
:030F350033F55D34
:010F38002296
:100CC300E4F522F523FF74302FF8E62523F523E41A
:100CD3003522F5220FBF0CEEAE22AF237C007D0739
:100CE300120AEF8E228F236323FF6322FFE522FF85
:100CF300131313541FFEEFC43354E04E752E00F547
:100D03002F752F00F52E752200E52F4223E52E4285
:100D130022AF23EF1313543FFEEFC4333354C04EBB
:0E0D2300752300752E00F52F4223E52E422287
:010D3100229F
:100B0100120F051210A77F021210A4E4F51C743213
:100B1100251CF8E6F51DFF1210DCE58A5407FF7469
:100B210030251CF8A6077430251CF8E6FF1210AC1E
:100B3100051CE51CC3940C40D585331DAF1D121057
:100B4100DCE58A5407F53C85371DAF1D1210DCE545
:100B51008A5407F53D7F0DE4F51C74302FF8E6FE4D
:100B610074342FF8A6061F051CE51CB40EEC753075
:100B7100A5E4F531F532753312FB7A0079307563EE
:100B810012FF120D99E433FE701D1210A77F03129C
:100B910010A4F51C7430251CF8E6FF1210AC051CDE
:100BA100E51CC3941040ED120C52E433701D121079
:100BB100A77F041210A4F51C7430251CF8E6FF125F
:0B0BC10010AC051CE51CC3941040EDB7
:010BCC002206
:060BCD008B088A09890A69
:100BD300780B7C007D007BFF7A0F798A7E007F1083
:100BE300120A7A750B83E4F50CF50D751B0C750E63
:100BF3000CAF0B1210ACAF0C1210ACAF0D1210AC4B
:100C0300AF0E1210ACFB7A00790B756304FF120D63
:100C130099E43360037F01227B007A00790BE51BA3
:100C23002402F5637F01120C64E4337009E50BB40D
:100C33009004E50C60037F0122AF1B7E00A80AAC81
:0E0C430009AD087B007A00790D120A7A7F0055
:010C51002280
:080DFD008B448A4589468D47AD
:100E050078487C007D007BFF7A0F799A7E007F1001
:100E1500120A7A754870E4F549F54A85474BFB7A1D
:100E2500007948E5472404F563E4FF120D99E4339E
:100E350060037F01227B007A0079487563027F0198
:100E4500120C64E4337009E548B49004E549600385
:050E55007F01227F0077
:010E5A002275
:100FD60078667C007D007BFF7A0F79AA7E007F0809
:100FE600120A7A7B007A0079667D08120DFD8F6EF3
:010FF60022D8
:10080000E4F5B2F5B1F5C9F5CA75BA8090FE00F00D
:10081000F5BA7589F0758E80758A30758CFFC28D3A
:10082000D28CD2A9D2B9D2AF1210C5D2CDE4F52163
:1008300020CDFDC2CC120FB47FAA1210AC120FB49F
:100840007F011210AC7E00120FB8120FB2C2CC1290
:100850000FB27F2C7E01120FB8120F05E558B401BC
:100860000280FEE4F5591210D3E58A5407FF743074
:100870002559F8A6070559E559C3940C40E8055BCE
:10088000E55BD394644003E4F55BE55B20E0031291
:100890000CC37F0BE4F55974302FF8E6FE74342F47
:1008A000F8A6061F0559E559B40CEC7530A5E4F51A
:1008B00031F532753312853740E522F537853B41F6
:1008C00085233B7B007A007930756312E4FF120DBB
:1008D00099E433F558B4010280FE120C52E433F56A
:1008E00058B4010280FE752C0085372DE52D752D3D
:1008F00000F52CE53B252DF52DE4352CF52C854018
:100900003785413BE4F55974342559F8E6FF7430D6
:100910002559F8A6070559E559B40CEB120CC3AFDD
:100920002D1210ACE52CFF1210A4AF231210ACE571
:1009300022FF1210ACE4F521E52D65237004E52CAF
:10094000652260037521011210A7AF211210AC12AD
:100950000F05E558B4010280FEE4F5591210D37476
:10096000302559F8A68A0559E559C3940C40ED1273
:100970000CC385333CE522F53385373D852337E4C9
:10098000F55974302559F8E6FBAD597FCA12106F3E
:100990000559E559C3940E40E97FF47E01120FB862
:0A09A0007FC87E00120FB802083075
:0C10DF00EF4E6007EF1F70F81E80F52236
:0510EB001210F0D2B26A
:0710F0007F0A7E000210DF01
:05112E00D2B3D2B22291
:0F10B600D2B3D2B21210F0C2B31210F0C2B222F3
:0A110D00C2B31210EBD2B30210F0CF
:081053001210B6AF0412108B5D
:10105B00D2B31210EBA2B392051210F0C2B212105F
:03106B00F0A205EB
:01106E00225F
:02108B00AD07AF
:10108D00E4FBED3392B31210EBC2B21210F0ED256A
:06109D00E0FD0BBB08ECB6
:0110A300222A
:100FF700E4FCD2B21210F0ED25E0FD1210F030B390
:0F10070003430501C2B21210F00CBC08E5AF059F
:0110160022B7
:10106F00AC07AA03A905121053AF0112108B12106F
:0C107F005BAF0212108B12105B02110D0F
:040F3900AC07AA0552
:100F3D00121053AF0212108B12105B1210B6EC048C
:100F4D00FF12108B12105B120FF7AD0712105B1210
:040F5D00110DAF05BE
:010F6100226D
:030000000210F7F4
:0C10F700787FE4F6D8FD75816E020800D9
:1009AA00E709F608DFFA8046E709F208DFFA803E2F
:1009BA0088828C83E709F0A3DFFA8032E309F6081C
:1009CA00DFFA8078E309F208DFFA807088828C8384
:1009DA00E309F0A3DFFA806489828A83E0A3F60838
:1009EA00DFFA805889828A83E0A3F208DFFA804C12
:1009FA0080D280FA80C680D4806980F280338010E9
:100A0A0080A680EA809A80A880DA80E280CA803351
:100A1A0089828A83ECFAE493A3C8C582C8CCC583C9
:100A2A00CCF0A3C8C582C8CCC583CCDFE9DEE78099
:100A3A000D89828A83E493A3F608DFF9ECFAA9F018
:100A4A00EDFB2289828A83ECFAE0A3C8C582C8CC6E
:100A5A00C583CCF0A3C8C582C8CCC583CCDFEADE87
:100A6A00E880DB89828A83E493A3F208DFF980CCE9
:100A7A0088F0EF60010E4E60C388F0ED2402B404E2
:100A8A000050B9F582EB2402B4040050AF23234589
:060A9A0082239009FA73AB
:100AA000BB010CE58229F582E5833AF583E022500B
:100AB00006E92582F8E622BBFE06E92582F8E22255
:0D0AC000E58229F582E5833AF583E493226F
:100ACD00F8BB010DE58229F582E5833AF583E8F05F
:100ADD00225006E92582C8F622BBFE05E92582C80B
:020AED00F222F3
:100AEF00EF8DF0A4A8F0CF8CF0A428CE8DF0A42E1B
:020AFF00FE22D5
:00000001FF
